:100000000C945D000C9485000C9485000C94850084
:100010000C9485000C9485000C9485000C9485004C
:100020000C9485000C9485000C9485000C9485003C
:100030000C9485000C9485000C9485000C9485002C
:100040000C947E050C9485000C9444050C940905D1
:100050000C9485000C9485000C9485000C9485000C
:100060000C94E2030C94850000000000240027009B
:100070002A0000000000250028002B0004040404CE
:100080000404040402020202020203030303030342
:10009000010204081020408001020408102001021F
:1000A00004081020000000070002010000030406FD
:1000B0000000000000000000C80511241FBECFEFA3
:1000C000D8E0DEBFCDBF11E0A0E0B1E0EEE8F0E1A6
:1000D00002C005900D92A832B107D9F722E0A8E23C
:1000E000B1E001C01D92AD3AB207E1F710E0CDE5F5
:1000F000D0E004C02197FE010E943F08CC35D10713
:10010000C9F70E9469060C9430080C94000085ED34
:100110008093BC008091BC0084FDFCCF1092BC0198
:100120000895613298F42091BC01243089F46093E1
:100130009801282FA8E7B1E0FC018E2F821B8617BB
:1001400018F481918D93F9CF80E0089581E00895AE
:1001500082E008950895CF92DF92EF92FF920F937D
:100160001F93CF93DF936C01EB017B01E40EF51E2F
:1001700000E010E0CE15DF0561F06991D601ED9148
:10018000FC910190F081E02DC6010995080F191F1F
:10019000F1CFC801DF91CF911F910F91FF90EF90A8
:1001A000DF90CF9008950895E091770180917601D6
:1001B000E81730F4F0E0EA5AFE4F808190E00895AD
:1001C0008FEF9FEF089590917701809176019817B6
:1001D00050F4E92FF0E0EA5AFE4F208130E09F5FB3
:1001E0009093770102C02FEF3FEFC90108958091EE
:1001F000760190E020917701821B91090895CF92BA
:10020000DF92EF92FF920F931F93CF93DF937C01C6
:10021000CB018A0120915501222389F0EB016B016A
:10022000C40ED51ECC15DD0569F06991D701ED919D
:10023000FC910190F081E02DC7010995F3CF642F67
:100240000E949100C801DF91CF911F910F91FF9003
:10025000EF90DF90CF900895CF93DF931F92CDB7AB
:10026000DEB76983209155012223D1F020915401FA
:10027000203240F021E030E0FC013383228380E033
:1002800090E015C080915301E82FF0E0ED5CFE4F47
:10029000998190838F5F809353018093540105C0AF
:1002A00061E0CE0101960E94910081E090E00F9004
:1002B000DF91CF9108950F931F93CF93DF93FC01AC
:1002C000A685B7858D01005C1F4FE8018881998163
:1002D00001968F739927AD014E5B5F4FEA0128812C
:1002E000398128173907D1F3E80128813981A20F14
:1002F000B31F6C93A685B785A05CBF4F11969C93E6
:100300008E93A689B7892C9181E090E0078C02C07A
:10031000880F991F0A94E2F7822B8C9381E081A3C6
:100320000488F589E02D80818064808381E090E0FD
:10033000DF91CF911F910F910895FC0181A1882336
:1003400029F0A489B5898C9186FFFBCF11A208956D
:10035000FC01A485B585FD01E05CFF4F2081318162
:100360003296808191812817390779F080819181B7
:10037000A80FB91F8C91208131812F5F3F4F2F73C0
:1003800033273183208390E008958FEF9FEF089506
:10039000DC011C96ED91FC911D97DF01A05CBF4F25
:1003A0002D913C91119712968D919C911197281740
:1003B000390739F08D919C91E80FF91F808190E009
:1003C00008958FEF9FEF0895FC0124853585F9018D
:1003D000E05CFF4F80819181329620813181821BC8
:1003E000930B8F739927089586E792E00C94E401AC
:1003F00090E0FC01EC55FF4F2491FC01E057FF4FCA
:100400003491FC01E458FF4FE491EE2309F43CC021
:10041000222339F1233091F038F42130A9F0223031
:1004200001F584B58F7D12C0263091F02730A1F000
:100430002430B9F4809180008F7D03C080918000CA
:100440008F77809380000DC084B58F7784BD09C0FD
:100450008091B0008F7703C08091B0008F7D809332
:10046000B000F0E0EE0FFF1FEE58FF4FA591B491E2
:100470009FB7F894611104C08C913095382302C065
:10048000EC913E2B3C939FBF0895CF93DF93EC01FB
:1004900060E08E810E94F80161E08E810E94F80187
:1004A00060E08E810E94F8018AE891E00197F1F7FF
:1004B000DF91CF910895CF93DF9390E0FC01E05757
:1004C000FF4F2491FC01E458FF4F8491882361F190
:1004D00090E0880F991FFC01E859FF4FC591D49116
:1004E000FC01EE58FF4FA591B491611109C09FB76F
:1004F000F8948881209582238883EC912E230BC069
:10050000623061F49FB7F8948881322F309583234D
:100510008883EC912E2B2C939FBF06C08FB7F89445
:10052000E8812E2B28838FBFDF91CF910895AF9262
:10053000BF92CF92DF92EF92FF920F931F93CF93D0
:10054000DF935C017C0187E0E80EF11CC0E0D0E0A5
:10055000062F10E0670161E0F70181917F010E94A1
:100560005B02B8010C2E02C0759567950A94E2F7FC
:100570006170F60180810E94F8012196C430D10596
:1005800049F7C501DF91CF911F910F91FF90EF9037
:10059000DF90CF90BF90AF900C944502AF92BF9286
:1005A000CF92DF92EF92FF920F931F93CF93DF933F
:1005B000EC01F62E642F8C810E94F8018D818F3F13
:1005C00019F060E00E94F8018F850F2D10E084FF84
:1005D0002DC05E0187E0A80EB11CE12CF12C650155
:1005E00061E0F50181915F010E945B02B8010E2C70
:1005F00002C0759567950A94E2F76170F6018081F3
:100600000E94F801FFEFEF1AFF0A88E0E816F104F4
:1006100031F7CE01DF91CF911F910F91FF90EF90B5
:10062000DF90CF90BF90AF900C944502B80184E06A
:10063000759567958A95E1F7CE010E9497026F2D17
:10064000CE01DF91CF911F910F91FF90EF90DF903E
:10065000CF90BF90AF900C949702CF93DF938230EE
:1006600028F09091A70298609093A7028093AB0224
:100670001092AC028AE39DE00197F1F760E080916F
:100680009C020E94F80160E080919E020E94F801A5
:1006900080919D028F3F19F060E00E94F801609107
:1006A000A70264FD20C063E088E992E00E949702FF
:1006B000CAE4D6E4CE010197F1F763E088E992E05D
:1006C0000E9497022197F1F763E088E992E00E9487
:1006D000970282E592E00197F1F762E088E992E003
:1006E0000E9497021EC0606240E088E992E00E948A
:1006F000CE028AE496E40197F1F76091A702606266
:1007000040E088E992E00E94CE0282E592E0019703
:10071000F1F76091A702606240E088E992E00E94F0
:10072000CE026091A702606240E088E992E00E94F8
:10073000CE0284E08093A80240E06CE088E992E079
:100740000E94CE0240E061E088E992E00E94CE0281
:100750008AE39FE10197F1F782E08093A90240E0EC
:1007600066E088E992E0DF91CF910C94CE0241E0FF
:100770000E94CE0281E090E008953FB7F894809106
:100780002D0190912E01A0912F01B091300126B53D
:10079000A89B05C02F3F19F00196A11DB11D3FBFB9
:1007A000BA2FA92F982F8827820F911DA11DB11D47
:1007B000BC01CD0142E0660F771F881F991F4A9543
:1007C000D1F708951F920F920FB60F9211242F9315
:1007D0003F934F935F936F937F938F939F93AF93C9
:1007E000BF93EF93FF938091B900887F803609F41F
:1007F0009CC068F5883209F45BC090F4803109F43C
:1008000054C038F4882309F4EFC0883009F44DC08F
:10081000EFC0883109F44CC0803209F45DC0E8C0F3
:10082000803409F468C048F4803309F455C0883333
:1008300009F0DEC08093BB01D1C0803509F44FC000
:10084000883509F45DC0883409F0D2C0CFC088393A
:1008500009F4C0C0A8F4883709F467C038F48836B2
:1008600009F463C0803709F460C0C2C0883809F455
:10087000B1C0803909F45FC0803809F0B9C05BC0ED
:10088000803B09F481C038F4803A09F466C0883AA4
:1008900009F47AC0ADC0803C09F4A0C0883C09F4DA
:1008A0009DC0883B09F483C0A3C08091E10110C0C2
:1008B0009091E0018091DF01981770F5E091E001DF
:1008C00081E08E0F8093E001F0E0E154FE4F8081E3
:1008D0008093BB0085EC7FC08093BB0187C0E09113
:1008E000E00181E08E0F8093E0018091BB00F0E099
:1008F000E154FE4F80839091E0018091DF0167C059
:10090000E091E00181E08E0F8093E0018091BB00D7
:10091000F0E0E154FE4F80838091BE01811166C0FA
:1009200081E08093BD0184EA5AC083E08093BC01DA
:100930001092BA01CFCF8091BA01803208F04AC03C
:10094000E091BA0181E08E0F8093BA018091BB00E3
:10095000F0E0E656FE4F8083BDCF8091BA01803231
:1009600030F4E091BA01F0E0E656FE4F10820E94AA
:1009700087006091BA0170E08AE991E0E0E0F0E080
:1009800009951092BA012AC084E08093BC011092AC
:10099000990110929801E0E0F0E0099580919801AA
:1009A000811105C081E08093980110927801E09157
:1009B000990181E08E0F80939901F0E0E858FE4F95
:1009C00080818093BB009091990180919801981744
:1009D00008F480CF85E88093BC000AC085EC809342
:1009E000BC001092BC0104C01092BB010E948700A1
:1009F000FF91EF91BF91AF919F918F917F916F91F7
:100A00005F914F913F912F910F900FBE0F901F90CC
:100A100018951F920F920FB60F9211242F933F93A8
:100A20008F939F93EF93FF9320912E0230912F028B
:100A300080913002909131022817390731F480916A
:100A4000C1008F7D8093C10014C0E0913002F0910D
:100A50003102E251FE4F20818091300290913102AB
:100A600001968F73992790933102809330022093DF
:100A7000C600FF91EF919F918F913F912F910F9021
:100A80000FBE0F901F9018951F920F920FB60F92E6
:100A900011242F934F935F938F939F93EF93FF9323
:100AA0008091C00082FD1CC02091C600809172021E
:100AB00090917302409174025091750201968F7368
:100AC00099274817590771F0E0917202F09173026B
:100AD000EE5CFD4F2083909373028093720202C0FC
:100AE0008091C600FF91EF919F918F915F914F91FF
:100AF0002F910F900FBE0F901F9018951F920F927D
:100B00000FB60F9211242F933F938F939F93AF9320
:100B1000BF938091290190912A01A0912B01B0915E
:100B20002C013091280123E0230F2D3720F401966A
:100B3000A11DB11D05C026E8230F0296A11DB11D00
:100B4000209328018093290190932A01A0932B01DF
:100B5000B0932C0180912D0190912E01A0912F0135
:100B6000B09130010196A11DB11D80932D0190938C
:100B70002E01A0932F01B0933001BF91AF919F91AF
:100B80008F913F912F910F900FBE0F901F9018954E
:100B90001092E5011092E40188EE93E0A0E0B0E04D
:100BA0008093E6019093E701A093E801B093E901F7
:100BB00024E031E03093E3012093E20110927902C6
:100BC0001092780280937A0290937B02A0937C0229
:100BD000B0937D0284E191E0909377028093760256
:100BE00082E392E090938302809382028EEE91E002
:100BF000909385028093840285EC90E09093870225
:100C00008093860284EC90E090938902809388021E
:100C100080EC90E090938B0280938A0281EC90E0CC
:100C200090938D0280938C0282EC90E090938F02DF
:100C300080938E0286EC90E09093910280939002D4
:100C400084E08093920293E09093930297E09093D4
:100C5000940225E02093950221E0209396021092C1
:100C60009B0210929A0224E231E030939902209381
:100C700098022CE020939C022FEF20939D022BE002
:100C800020939E0228E020939F029093A0028093DD
:100C9000A10282E08093A2021092A3021092A40209
:100CA0001092A5021092A60261E08CE00E945B0205
:100CB00080919D028F3F19F061E00E945B0261E02C
:100CC00080919E020E945B021092A70281E00C9428
:100CD0002D03789484B5826084BD84B5816084BD21
:100CE00085B5826085BD85B5816085BD80916E00CA
:100CF000816080936E0010928100809181008260FB
:100D00008093810080918100816080938100809137
:100D100080008160809380008091B1008460809326
:100D2000B1008091B00081608093B00080917A0022
:100D3000846080937A0080917A00826080937A0048
:100D400080917A00816080937A0080917A00806837
:100D500080937A001092C10082E00E942D031092CD
:100D60007701109276011092530110925401109263
:100D7000BC0181E08093BE011092BD0161E082E17F
:100D80000E94F80161E083E10E94F8018091B900BE
:100D90008E7F8093B9008091B9008D7F8093B900D8
:100DA00088E48093B80085E48093BC00E0918A02D7
:100DB000F0918B0281E090E09C010090960202C0CD
:100DC000220F331F0A94E2F72083E0918602F0910C
:100DD00087021082E0918802F09189022FEC208333
:100DE00010929702E0918C02F0918D0240819C015B
:100DF0000090920202C0220F331F0A94E2F7242BC4
:100E00002083E0918C02F0918D0240819C01009042
:100E1000930202C0220F331F0A94E2F7242B20838F
:100E2000E0918C02F0918D0240819C01009094022F
:100E300002C0220F331F0A94E2F7242B2083E09193
:100E40008C02F0918D0220810090950202C0880FE3
:100E5000991F0A94E2F780958223808361E08AE0FB
:100E60000E945B0261E089E00E945B0261E086E033
:100E70000E945B0260E085E00E945B0261E083E02B
:100E80000E945B02D1E098E6892E22E0722EBB24FC
:100E9000BA9435EEA32E45EC942E56E0652E6AE00A
:100EA000562ED09355018092310110925301109229
:100EB000540160E082EE91E00E942C019091540177
:100EC0009132E0F58091BC018111FCCF7092BC01A0
:100ED000D093BE01B092BB011092E0019093DF016C
:100EE000E3E3F1E0AFEBB1E0981721F021912D930E
:100EF0008F5FFACF1092E1018091E101806D8093C4
:100F0000E1018091BD01813049F41092BD018091D1
:100F1000E1018093BB009092BC0002C0A092BC0093
:100F20008091BC018230E1F38091BB018F3F31F0B1
:100F30008091BB01803211F08091BB01109253016E
:100F400010925401109255018091BC018111FCCF87
:100F5000D093BC01D093BE01B092BB011092E001CE
:100F60006092DF01D093E1018091E101806D809377
:100F7000E1018091BD01813049F41092BD01809161
:100F8000E1018093BB009092BC0002C0A092BC0023
:100F90008091BC018130E1F38091E001873018F449
:100FA0009091E00101C097E0AFEBB1E0E6E5F1E040
:100FB00080E0891721F02D9121938F5FFACF109255
:100FC00077018093760182EE91E00E94E30082EE49
:100FD00091E00E94E300982F92959F708F70C82F28
:100FE0002AE0929FC00D1124C093320182EE91E05D
:100FF0000E94E30082EE91E00E94E30082EE91E025
:101000000E94E30082EE91E00E94E30082EE91E014
:101010000E94E3008C2F652D0E943308992319F05C
:101020000E94F4013ECF0E94BD038B0180E6C82ED2
:101030008AEED82EE12CF12C0E94BD03601B710BAF
:10104000683E7340C8F321E0C21AD108E108F108F4
:1010500008511C4FC114D104E104F10469F7E0CF39
:10106000F8940C944508991B79E004C0991F9617D1
:1010700008F0961B881F7A95C9F780950895EE0FA2
:0E108000FF1F0590F491E02D0994F894FFCF26
:10108E00000000002C01FF00F700E300D400D300A5
:10109E00000000005B01AB00E401A801C8019D0146
:0810AE0000000000B703AB00D5
:00000001FF
