:100000000C9462000C948A000C948A000C948A0070
:100010000C948A000C948A000C948A000C948A0038
:100020000C948A000C948A000C948A000C948A0028
:100030000C948A000C948A000C948A000C948A0018
:100040000C9480030C948A000C94D8010C949D01AC
:100050000C948A000C948A000C948A000C948A00F8
:100060000C94E4040C948A00000000002400270093
:100070002A0000000000250028002B0000000000DE
:1000800023002600290004040404040404040202DA
:100090000202020203030303030301020408102007
:1000A0004080010204081020010204081020000012
:1000B0000007000201000003040600000000000029
:1000C00000008D0A11241FBECFEFD8E0DEBFCDBFE8
:1000D00011E0A0E0B1E0EAE8F6E102C005900D927F
:1000E000AC38B107D9F723E0ACE8B1E001C01D920C
:1000F000A331B207E1F710E0C2E6D0E004C02197D7
:10010000FE010E943D0BC136D107C9F70E94C80607
:100110000C942E0B0C9400000F931F93CF93DF933E
:10012000FC01A685B7858D01005C1F4FE801888121
:10013000998101968F739927AD014E5B5F4FEA015C
:100140002881398128173907D1F3E80128813981BD
:10015000A20FB31F6C93A685B785A05CBF4F119605
:100160009C938E93A689B7892C9181E090E0078CAF
:1001700002C0880F991F0A94E2F7822B8C9381E0CA
:1001800081A30488F589E02D80818064808381E0EB
:1001900090E0DF91CF911F910F910895FC0181A113
:1001A000882329F0A489B5898C9186FFFBCF11A201
:1001B0000895FC01A485B585FD01E05CFF4F208119
:1001C00031813296808191812817390779F08081B9
:1001D0009181A80FB91F8C91208131812F5F3F4FF2
:1001E0002F7333273183208390E008958FEF9FEFA3
:1001F0000895DC011C96ED91FC911D97DF01A05C38
:10020000BF4F2D913C91119712968D919C91119712
:100210002817390739F08D919C91E80FF91F8081DB
:1002200090E008958FEF9FEF0895FC0124853585B8
:10023000F901E05CFF4F808191813296208131810C
:10024000821B930B8F739927089589E992E00C9490
:1002500015010895CF92DF92EF92FF920F931F93B3
:10026000CF93DF936C01EB017B01E40EF51E00E000
:1002700010E0CE15DF0561F06991D601ED91FC919A
:100280000190F081E02DC6010995080F191FF1CFEB
:10029000C801DF91CF911F910F91FF90EF90DF90F8
:1002A000CF9008953FB7F894809191019091920179
:1002B000A0919301B091940126B5A89B05C02F3F52
:1002C00019F00196A11DB11D3FBFBA2FA92F982F7C
:1002D0008827820F911DA11DB11DBC01CD0142E0F7
:1002E000660F771F881F991F4A95D1F70895CF92FF
:1002F000DF92EF92FF92CF93DF936B017C010E941C
:100300005201EB01C114D104E104F10479F00E941F
:1003100052016C1B7D0B683E7340A0F381E0C81A4C
:10032000D108E108F108C851DC4FECCFDF91CF9143
:10033000FF90EF90DF90CF9008951F920F920FB62D
:100340000F9211242F933F938F939F93EF93FF93DB
:1003500020915102309152028091530290915402A7
:100360002817390731F48091C1008F7D8093C10037
:1003700014C0E0915302F0915402EF5EFD4F2081D2
:10038000809153029091540201968F739927909314
:100390005402809353022093C600FF91EF919F91E6
:1003A0008F913F912F910F900FBE0F901F90189536
:1003B0001F920F920FB60F9211242F934F935F93BA
:1003C0008F939F93EF93FF938091C00082FD1CC099
:1003D0002091C600809195029091960240919702DB
:1003E0005091980201968F7399274817590771F019
:1003F000E0919502F0919602EB5AFD4F2083909385
:1004000096028093950202C08091C600FF91EF9101
:100410009F918F915F914F912F910F900FBE0F90F1
:100420001F901895833081F028F4813099F0823044
:10043000A1F008958630A9F08730B9F08430D1F466
:10044000809180008F7D03C0809180008F778093A2
:100450008000089584B58F7702C084B58F7D84BDF8
:1004600008958091B0008F7703C08091B0008F7D98
:100470008093B00008951F93CF93DF93282F30E02F
:10048000F901E255FF4F8491F901E656FF4FD491EF
:10049000F901EA57FF4FC491CC23C1F0162F811107
:1004A0000E941202EC2FF0E0EE0FFF1FEE58FF4FFC
:1004B000A591B4919FB7F894111104C08C91D09577
:1004C000D82302C0EC91DE2BDC939FBFDF91CF914C
:1004D0001F910895CF93DF9390E0FC01E656FF4F04
:1004E0002491FC01EA57FF4F8491882361F190E049
:1004F000880F991FFC01E859FF4FC591D491FC0169
:10050000EE58FF4FA591B491611109C09FB7F894BF
:100510008881209582238883EC912E230BC0623042
:1005200061F49FB7F8948881322F309583238883B4
:10053000EC912E2B2C939FBF06C08FB7F894E881C7
:100540002E2B28838FBFDF91CF910895AF92BF925A
:10055000CF92DF92EF92FF920F931F93CF93DF938F
:10056000EC01F62E642F8C810E943B028D818F3F1F
:1005700019F060E00E943B028F850F2D10E084FF90
:100580002DC05E0187E0A80EB11CE12CF12C6501A5
:1005900061E0F50181915F010E946A02B8010E2CB1
:1005A00002C0759567950A94E2F76170F601808143
:1005B0000E943B02FFEFEF1AFF0A88E0E816F10401
:1005C00031F7CE01DF91CF911F910F91FF90EF9006
:1005D000DF90CF90BF90AF900C940B06B80184E0F1
:1005E000759567958A95E1F7CE010E9421066F2DDA
:1005F000CE01DF91CF911F910F91FF90EF90DF908F
:10060000CF90BF90AF900C94210641E00E94A602CB
:1006100081E090E008951F93CF93DF93182FEB01B3
:1006200061E00E946A02209711F460E004C0CF3FAD
:10063000D10539F461E0812FDF91CF911F910C94A6
:100640003B02E12FF0E0E255FF4FE491E330F9F097
:1006500048F4E130B9F0E230A1F584B5806284BDA0
:10066000C8BD34C0E630E9F0E73019F1E43049F5AF
:1006700080918000806280938000D0938B00C09333
:100680008A0024C084B5806884BDC7BD1FC0809126
:100690008000806880938000D0938900C093880098
:1006A00015C08091B00080688093B000C093B30003
:1006B0000DC08091B00080628093B000C093B40000
:1006C00005C0C038D1050CF0B5CFAFCFDF91CF91C9
:1006D0001F9108950F931F93CF93DF938B01EA012E
:1006E000BC018AE00E940B03B80189E00E940B0361
:1006F000BE0186E0DF91CF911F910F910C940B0307
:100700001F920F920FB60F9211242F933F938F9346
:100710009F93AF93BF9380918D0190918E01A09193
:100720008F01B091900130918C0123E0230F2D3780
:1007300020F40196A11DB11D05C026E8230F0296E5
:10074000A11DB11D20938C0180938D0190938E018A
:10075000A0938F01B09390018091910190919201AB
:10076000A0919301B09194010196A11DB11D8093B8
:10077000910190939201A0939301B0939401BF9142
:10078000AF919F918F913F912F910F900FBE0F903E
:100790001F90189585ED8093BC008091BC0084FD6E
:1007A000FCCF1092DF010895613298F42091DF01AF
:1007B000243089F46093F002282FA0EDB2E0FC0110
:1007C0008E2F821B861718F481918D93F9CF80E0CC
:1007D000089581E0089582E008950895E091DD0193
:1007E0008091DC01E81730F4F0E0E454FE4F8081A2
:1007F00090E008958FEF9FEF08959091DD01809133
:10080000DC01981750F4E92FF0E0E454FE4F20810A
:1008100030E09F5F9093DD0102C02FEF3FEFC901F1
:1008200008958091DC0190E02091DD01821B910907
:100830000895CF92DF92EF92FF920F931F93CF9381
:10084000DF937C01CB018A012091BB01222389F037
:10085000EB016B01C40ED51ECC15DD0569F0699165
:10086000D701ED91FC910190F081E02DC701099530
:10087000F3CF642F0E94D403C801DF91CF911F9161
:100880000F91FF90EF90DF90CF900895CF93DF937B
:100890001F92CDB7DEB769832091BB012223D1F02F
:1008A0002091BA01203240F021E030E0FC01338396
:1008B000228380E090E015C08091B901E82FF0E03C
:1008C000E756FE4F998190838F5F8093B9018093A3
:1008D000BA0105C061E0CE0101960E94D40381E017
:1008E00090E00F90DF91CF91089540E0682F8BEB5F
:1008F00092E00C94A60281E00E9475048AE39FE1D5
:100900000197F1F70895CF93DF93E3EBF0E0849143
:10091000EFE9F0E0D491EBE8F0E0C491CC2391F062
:1009200081110E941202EC2FF0E0EE0FFF1FE4583D
:10093000FF4FA591B491EC91ED2381E090E021F47B
:1009400080E002C080E090E0DF91CF9108950097B1
:1009500069F0FC0101900020E9F73197AF01481BD5
:10096000590BBC018BEB92E00C942A0180E090E0E3
:100970000895CF93DF93CDB7DEB728970FB6F894DD
:10098000DEBF0FBECDBF98E0E0E0F1E0DE011196E2
:1009900001900D929A95E1F79091CE02891710F08F
:1009A0008FEF890FFE013196E80FF11DE80FF11D61
:1009B0008081806828960FB6F894DEBF0FBECDBF49
:1009C000DF91CF910C9475041F920F920FB60F9286
:1009D00011242F933F934F935F936F937F938F9344
:1009E0009F93AF93BF93EF93FF938091B900887F5C
:1009F000803609F49CC068F5883209F45BC090F435
:100A0000803109F454C038F4882309F4EFC08830E9
:100A100009F44DC0EFC0883109F44CC0803209F4AC
:100A20005DC0E8C0803409F468C048F4803309F43C
:100A300055C0883309F0DEC08093DE01D1C0803517
:100A400009F44FC0883509F45DC0883409F0D2C07C
:100A5000CFC0883909F4C0C0A8F4883709F467C04A
:100A600038F4883609F463C0803709F460C0C2C026
:100A7000883809F4B1C0803909F45FC0803809F0C2
:100A8000B9C05BC0803B09F481C038F4803A09F4F6
:100A900066C0883A09F47AC0ADC0803C09F4A0C0B1
:100AA000883C09F49DC0883B09F483C0A3C08091B1
:100AB000040210C09091030280910202981770F511
:100AC000E091030281E08E0F80930302F0E0EE518B
:100AD000FE4F80818093BB0085EC7FC08093DE0158
:100AE00087C0E091030281E08E0F80930302809122
:100AF000BB00F0E0EE51FE4F8083909103028091A5
:100B0000020267C0E091030281E08E0F809303022E
:100B10008091BB00F0E0EE51FE4F80838091E101B7
:100B2000811166C081E08093E00184EA5AC083E0CD
:100B30008093DF0110921203CFCF80911203803295
:100B400008F04AC0E091120381E08E0F80931203F7
:100B50008091BB00F0E0EE50FD4F8083BDCF8091CF
:100B60001203803230F4E0911203F0E0EE50FD4FBA
:100B700010820E94CA036091120370E082EF92E03B
:100B8000E0E0F0E00995109212032AC084E080931F
:100B9000DF011092F1021092F002E0E0F0E009951E
:100BA0008091F002811105C081E08093F0021092E3
:100BB000D002E091F10281E08E0F8093F102F0E02B
:100BC000E053FD4F80818093BB009091F1028091B2
:100BD000F002981708F480CF85E88093BC000AC023
:100BE00085EC8093BC001092DF0104C01092DE01FE
:100BF0000E94CA03FF91EF91BF91AF919F918F9196
:100C00007F916F915F914F913F912F910F900FBE08
:100C10000F901F901895CF93DF93EC0160E08E81C9
:100C20000E943B0261E08E810E943B0260E08E8167
:100C30000E943B028AE891E00197F1F7DF91CF91A2
:100C40000895AF92BF92CF92DF92EF92FF920F93EF
:100C50001F93CF93DF935C017C0187E0E80EF11CCA
:100C6000C0E0D0E0062F10E0670161E0F70181915C
:100C70007F010E946A02B8010C2E02C0759567952B
:100C80000A94E2F76170F60180810E943B0221968E
:100C9000C430D10549F7C501DF91CF911F910F9164
:100CA000FF90EF90DF90CF90BF90AF900C940B0629
:100CB000CF93DF93823028F09091CA02986090938E
:100CC000CA028093CE021092CF028AE39DE0019780
:100CD000F1F760E08091BF020E943B0260E08091EA
:100CE000C1020E943B028091C0028F3F19F060E078
:100CF0000E943B028091CA0284FD20C063E08BEB1E
:100D000092E00E942106CAE4D6E4CE010197F1F7F1
:100D100063E08BEB92E00E9421062197F1F763E0FC
:100D20008BEB92E00E94210682E592E00197F1F7B9
:100D300062E08BEB92E00E94210615C080620E9467
:100D400075048AE496E40197F1F78091CA02806203
:100D50000E94750482E592E00197F1F78091CA0242
:100D600080620E9475048091CA0280620E947504AC
:100D700084E08093CB028CE00E9475040E947B0487
:100D800082E08093CC0286E0DF91CF910C947504D1
:100D9000789484B5826084BD84B5816084BD85B556
:100DA000826085BD85B5816085BD80916E00816062
:100DB00080936E0010928100809181008260809308
:100DC000810080918100816080938100809180000A
:100DD0008160809380008091B10084608093B10035
:100DE0008091B00081608093B00080917A0084602F
:100DF00080937A0080917A00826080937A0080915B
:100E00007A00816080937A0080917A008068809374
:100E10007A001092C10082E00E9458061092DD0113
:100E20001092DC011092B9011092BA011092DF0108
:100E300081E08093E1011092E00161E082E10E9493
:100E40003B0261E083E10E943B028091B9008E7F0A
:100E50008093B9008091B9008D7F8093B90088E4B8
:100E60008093B80085E48093BC00E091AD02F091DE
:100E7000AE0281E090E09C010090B90202C0220F16
:100E8000331F0A94E2F72083E091A902F091AA02AD
:100E90001082E091AB02F091AC022FEC2083109213
:100EA000BA02E091AF02F091B00240819C01009043
:100EB000B50202C0220F331F0A94E2F7242B2083CD
:100EC000E091AF02F091B00240819C010090B60227
:100ED00002C0220F331F0A94E2F7242B2083E091F3
:100EE000AF02F091B00240819C010090B70202C0B5
:100EF000220F331F0A94E2F7242B2083E091AF02E4
:100F0000F091B00220810090B80202C0880F991FB2
:100F10000A94E2F780958223808361E08AE00E9450
:100F20006A0261E089E00E946A0261E086E00E9454
:100F30006A0260E085E00E946A0261E083E00E944C
:100F40006A0211E088E6D82E92E0C92E0FEF25EE56
:100F5000F22E35ECE32E46E0B42E5AE0A52E109387
:100F6000BB01D09295011092B9011092BA0160E0D4
:100F700085E092E00E9446049091BA019132E0F53A
:100F80008091DF018111FCCFC092DF011093E1015C
:100F90000093DE011092030290930202E9E9F1E06E
:100FA000A2EEB1E0981721F021912D938F5FFACF37
:100FB0001092040280910402806D8093040280915B
:100FC000E001813049F41092E001809104028093A5
:100FD000BB00E092BC0002C0F092BC008091DF0137
:100FE0008230E1F38091DE018F3F31F08091DE01AC
:100FF000803211F08091DE011092B9011092BA0195
:101000001092BB018091DF018111FCCF1093DF01B1
:101010001093E1010093DE0110920302B0920202EC
:101020001093040280910402806D809304028091E9
:10103000E001813049F41092E00180910402809334
:10104000BB00E092BC0002C0F092BC008091DF01C6
:101050008130E1F380910302873018F4909103020C
:1010600001C097E0A2EEB1E0ECEBF1E080E089177F
:1010700021F02D9121938F5FFACF1092DD018093A3
:10108000DC0185E092E00E94FD0385E092E00E9491
:10109000FD03982F92959F708F70C82F2AE0929F22
:1010A000C00D1124C093980185E092E00E94FD03D9
:1010B000D82FD695D695D695D6709D2F990F990F86
:1010C000D90F8F70D80FD093960185E092E00E94DF
:1010D000FD03982F92959F708F70982E2AE0929F13
:1010E000900C11249092970185E092E00E94FD03FC
:1010F00085E092E00E94FD0385E092E00E94FD03FE
:101100008C2F6A2D0E94310B911104C285E0981238
:10111000A0C0DF3009F09DC0C551CA3008F099C0A9
:10112000CAE0D0E00E9483040197B1F440E050E0AF
:1011300060E070E080E090E00E946A0360E070E0B0
:1011400083E00E940B030E947B0460E177E280E071
:1011500090E00E94770175C080E00E94B90480E3AE
:1011600091E00E94A70481E00E94B90481E491E02B
:101170000E94A70440E050E06FEF70E080E090E054
:101180000E946A0368EA75E283E00E940B030E94F2
:101190008304019759F264EF71E080E090E00E94CF
:1011A000770169E971E083E00E940B030E948304E8
:1011B000019709F4BBCF64EF71E080E090E00E94FA
:1011C000770160E47FE183E00E940B030E948304C7
:1011D000019709F4ABCF64EF71E080E090E00E94EA
:1011E000770160E371E083E00E940B030E948304B7
:1011F000019709F49BCF64EF71E080E090E00E94DA
:10120000770160E070E083E00E940B030E9483049A
:10121000019709F48BCF60ED77E080E090E00E94C9
:1012200077010E947B040E948304019709F47ECF1A
:1012300068EE73E080E090E00E947701219709F06A
:1012400071CF40E050E060E070E080E090E00E940C
:101250006A03809197018111ABC0809196018F3014
:1012600031F48091980185518A3048F0A1C08D7F7A
:10127000803109F09DC080919801811199C0CAE028
:10128000D0E00E9483040197B1F440E050E060E0B8
:1012900070E080E090E00E946A0360E070E083E02C
:1012A0000E940B030E947B0460E177E280E090E003
:1012B0000E94770175C080E00E94B9048FE491E03C
:1012C0000E94A70481E00E94B9048CE591E00E948D
:1012D000A7044FEF50E060E070E08FEF90E00E94D5
:1012E0006A0360E371E083E00E940B030E948304C1
:1012F000019759F264EF71E080E090E00E9477017D
:1013000064E678E283E00E940B030E948304019765
:1013100009F4BBCF64EF71E080E090E00E947701B8
:101320006EEA71E083E00E940B030E948304019740
:1013300009F4ABCF64EF71E080E090E00E947701A8
:1013400064E17EE183E00E940B030E948304019725
:1013500009F49BCF64EF71E080E090E00E94770198
:1013600060E070E083E00E940B030E948304019719
:1013700009F48BCF60ED77E080E090E00E94770188
:101380000E947B040E948304019709F47ECF68EEDB
:1013900073E080E090E00E947701219709F071CF1F
:1013A00040E050E060E070E080E090E00E946A037E
:1013B000809197018250823008F0A6C080919601FA
:1013C000803129F0833119F0853109F09DC0809179
:1013D0009801811199C0CAE0D0E00E94830401976E
:1013E000B1F440E050E060E070E080E090E00E9406
:1013F0006A0360E070E083E00E940B030E947B04BC
:1014000060E177E280E090E00E94770175C080E0C3
:101410000E94B9048AE691E00E94A70481E00E943C
:10142000B9048DE791E00E94A7044FEF50E06FEF01
:1014300070E080E090E00E946A0368E070E283E080
:101440000E940B030E948304019759F264EF71E03C
:1014500080E090E00E94770167E271E083E00E9403
:101460000B030E948304019709F4BBCF64EF71E082
:1014700080E090E00E9477016AE078E283E00E94D9
:101480000B030E948304019709F4ABCF64EF71E072
:1014900080E090E00E94770165E671E083E00E94C1
:1014A0000B030E948304019709F49BCF64EF71E062
:1014B00080E090E00E94770160E070E083E00E94AD
:1014C0000B030E948304019709F48BCF60ED77E052
:1014D00080E090E00E9477010E947B040E948304D8
:1014E000019709F47ECF68EE73E080E090E00E94FF
:1014F0007701219709F071CF40E050E060E070E0A3
:1015000080E090E00E946A0360E67AEE80E090E07E
:101510000E9477010E94250122CD109208021092AC
:10152000070288EE93E0A0E0B0E080930902909378
:101530000A02A0930B02B0930C022CE031E030932E
:1015400006022093050210929C0210929B02809347
:101550009D0290939E02A0939F02B093A0028CE103
:1015600091E090939A028093990285E592E090939E
:10157000A6028093A50281E192E09093A802809355
:10158000A70285EC90E09093AA028093A90284ECD4
:1015900090E09093AC028093AB0280EC90E090934B
:1015A000AE028093AD0281EC90E09093B002809304
:1015B000AF0282EC90E09093B2028093B10286EC8D
:1015C00090E09093B4028093B30284E08093B502DC
:1015D00093E09093B60297E09093B70225E02093B2
:1015E000B80221E02093B9021092BE021092BD020F
:1015F0002CE231E03093BC022093BB022CE020931C
:10160000BF022FEF2093C0022BE02093C10228E0FD
:101610002093C2029093C3028093C40282E080931D
:10162000C5021092C6021092C7021092C802109210
:10163000C90261E08CE00E946A028091C0028F3F83
:1016400019F061E00E946A0261E08091C1020E948B
:101650006A021092CA0281E00C945806F8940C9425
:10166000430B991B79E004C0991F961708F0961B4D
:10167000881F7A95C9F780950895EE0FFF1F059092
:0A168000F491E02D0994F894FFCFD7
:10168A000000400014005400000000004604190441
:10169A001104FD03EE03ED03000000008C002A0193
:1016AA001501D900F900CE000000000005032A0147
:1016BA0052454D4544494F205041524120444F52D2
:1016CA00003220434F4D5052494D49444F53004137
:1016DA004E5449414C45524749434F003420434FE9
:1016EA004D5052494D49444F530052454D45444986
:1016FA004F204445205052455353414F0033204315
:0C170A004F4D5052494D49444F530000D0
:00000001FF
