:100000000C9462000C948A000C948A000C948A0070
:100010000C948A000C948A000C948A000C948A0038
:100020000C948A000C948A000C948A000C948A0028
:100030000C948A000C948A000C948A000C948A0018
:100040000C9480030C948A000C94D8010C949D01AC
:100050000C948A000C948A000C948A000C948A00F8
:100060000C94E4040C948A00000000002400270093
:100070002A0000000000250028002B0000000000DE
:1000800023002600290004040404040404040202DA
:100090000202020203030303030301020408102007
:1000A0004080010204081020010204081020000012
:1000B0000007000201000003040600000000000029
:1000C0000000880A11241FBECFEFD8E0DEBFCDBFED
:1000D00011E0A0E0B1E0E0E8F6E102C005900D9289
:1000E000A036B107D9F722E0A0E6B1E001C01D9229
:1000F000A73EB207E1F710E0C2E6D0E004C02197C6
:10010000FE010E94380BC136D107C9F70E94C8060C
:100110000C94290B0C9400000F931F93CF93DF9343
:10012000FC01A685B7858D01005C1F4FE801888121
:10013000998101968F739927AD014E5B5F4FEA015C
:100140002881398128173907D1F3E80128813981BD
:10015000A20FB31F6C93A685B785A05CBF4F119605
:100160009C938E93A689B7892C9181E090E0078CAF
:1001700002C0880F991F0A94E2F7822B8C9381E0CA
:1001800081A30488F589E02D80818064808381E0EB
:1001900090E0DF91CF911F910F910895FC0181A113
:1001A000882329F0A489B5898C9186FFFBCF11A201
:1001B0000895FC01A485B585FD01E05CFF4F208119
:1001C00031813296808191812817390779F08081B9
:1001D0009181A80FB91F8C91208131812F5F3F4FF2
:1001E0002F7333273183208390E008958FEF9FEFA3
:1001F0000895DC011C96ED91FC911D97DF01A05C38
:10020000BF4F2D913C91119712968D919C91119712
:100210002817390739F08D919C91E80FF91F8081DB
:1002200090E008958FEF9FEF0895FC0124853585B8
:10023000F901E05CFF4F808191813296208131810C
:10024000821B930B8F73992708958DE692E00C948F
:1002500015010895CF92DF92EF92FF920F931F93B3
:10026000CF93DF936C01EB017B01E40EF51E00E000
:1002700010E0CE15DF0561F06991D601ED91FC919A
:100280000190F081E02DC6010995080F191FF1CFEB
:10029000C801DF91CF911F910F91FF90EF90DF90F8
:1002A000CF9008953FB7F8948091650190916601D1
:1002B000A0916701B091680126B5A89B05C02F3FAA
:1002C00019F00196A11DB11D3FBFBA2FA92F982F7C
:1002D0008827820F911DA11DB11DBC01CD0142E0F7
:1002E000660F771F881F991F4A95D1F70895CF92FF
:1002F000DF92EF92FF92CF93DF936B017C010E941C
:100300005201EB01C114D104E104F10479F00E941F
:1003100052016C1B7D0B683E7340A0F381E0C81A4C
:10032000D108E108F108C851DC4FECCFDF91CF9143
:10033000FF90EF90DF90CF9008951F920F920FB62D
:100340000F9211242F933F938F939F93EF93FF93DB
:100350002091250230912602809127029091280257
:100360002817390731F48091C1008F7D8093C10037
:1003700014C0E0912702F0912802EB51FE4F20813A
:10038000809127029091280201968F73992790936C
:100390002802809327022093C600FF91EF919F913E
:1003A0008F913F912F910F900FBE0F901F90189536
:1003B0001F920F920FB60F9211242F934F935F93BA
:1003C0008F939F93EF93FF938091C00082FD1CC099
:1003D0002091C6008091690290916A0240916B025F
:1003E00050916C0201968F7399274817590771F045
:1003F000E0916902F0916A02E75DFD4F20839093DE
:100400006A028093690202C08091C600FF91EF9159
:100410009F918F915F914F912F910F900FBE0F90F1
:100420001F901895833081F028F4813099F0823044
:10043000A1F008958630A9F08730B9F08430D1F466
:10044000809180008F7D03C0809180008F778093A2
:100450008000089584B58F7702C084B58F7D84BDF8
:1004600008958091B0008F7703C08091B0008F7D98
:100470008093B00008951F93CF93DF93282F30E02F
:10048000F901E255FF4F8491F901E656FF4FD491EF
:10049000F901EA57FF4FC491CC23C1F0162F811107
:1004A0000E941202EC2FF0E0EE0FFF1FEE58FF4FFC
:1004B000A591B4919FB7F894111104C08C91D09577
:1004C000D82302C0EC91DE2BDC939FBFDF91CF914C
:1004D0001F910895CF93DF9390E0FC01E656FF4F04
:1004E0002491FC01EA57FF4F8491882361F190E049
:1004F000880F991FFC01E859FF4FC591D491FC0169
:10050000EE58FF4FA591B491611109C09FB7F894BF
:100510008881209582238883EC912E230BC0623042
:1005200061F49FB7F8948881322F309583238883B4
:10053000EC912E2B2C939FBF06C08FB7F894E881C7
:100540002E2B28838FBFDF91CF910895AF92BF925A
:10055000CF92DF92EF92FF920F931F93CF93DF938F
:10056000EC01F62E642F8C810E943B028D818F3F1F
:1005700019F060E00E943B028F850F2D10E084FF90
:100580002DC05E0187E0A80EB11CE12CF12C6501A5
:1005900061E0F50181915F010E946A02B8010E2CB1
:1005A00002C0759567950A94E2F76170F601808143
:1005B0000E943B02FFEFEF1AFF0A88E0E816F10401
:1005C00031F7CE01DF91CF911F910F91FF90EF9006
:1005D000DF90CF90BF90AF900C940B06B80184E0F1
:1005E000759567958A95E1F7CE010E9421066F2DDA
:1005F000CE01DF91CF911F910F91FF90EF90DF908F
:10060000CF90BF90AF900C94210641E00E94A602CB
:1006100081E090E008951F93CF93DF93182FEB01B3
:1006200061E00E946A02209711F460E004C0CF3FAD
:10063000D10539F461E0812FDF91CF911F910C94A6
:100640003B02E12FF0E0E255FF4FE491E330F9F097
:1006500048F4E130B9F0E230A1F584B5806284BDA0
:10066000C8BD34C0E630E9F0E73019F1E43049F5AF
:1006700080918000806280938000D0938B00C09333
:100680008A0024C084B5806884BDC7BD1FC0809126
:100690008000806880938000D0938900C093880098
:1006A00015C08091B00080688093B000C093B30003
:1006B0000DC08091B00080628093B000C093B40000
:1006C00005C0C038D1050CF0B5CFAFCFDF91CF91C9
:1006D0001F9108950F931F93CF93DF938B01EA012E
:1006E000BC018AE00E940B03B80189E00E940B0361
:1006F000BE0186E0DF91CF911F910F910C940B0307
:100700001F920F920FB60F9211242F933F938F9346
:100710009F93AF93BF938091610190916201A091EB
:100720006301B09164013091600123E0230F2D3704
:1007300020F40196A11DB11D05C026E8230F0296E5
:10074000A11DB11D2093600180936101909362010E
:10075000A0936301B093640180916501909166015B
:10076000A0916701B09168010196A11DB11D809310
:10077000650190936601A0936701B0936801BF91F2
:10078000AF919F918F913F912F910F900FBE0F903E
:100790001F90189585ED8093BC008091BC0084FD6E
:1007A000FCCF1092B3010895613298F42091B30107
:1007B000243089F46093C402282FA4EAB2E0FC013B
:1007C0008E2F821B861718F481918D93F9CF80E0CC
:1007D000089581E0089582E008950895E091B101BF
:1007E0008091B001E81730F4F0E0E057FE4F8081CF
:1007F00090E008958FEF9FEF08959091B10180915F
:10080000B001981750F4E92FF0E0E057FE4F208137
:1008100030E09F5F9093B10102C02FEF3FEFC9011D
:1008200008958091B00190E02091B101821B91095F
:100830000895CF92DF92EF92FF920F931F93CF9381
:10084000DF937C01CB018A0120918F01222389F063
:10085000EB016B01C40ED51ECC15DD0569F0699165
:10086000D701ED91FC910190F081E02DC701099530
:10087000F3CF642F0E94D403C801DF91CF911F9161
:100880000F91FF90EF90DF90CF900895CF93DF937B
:100890001F92CDB7DEB7698320918F012223D1F05B
:1008A00020918E01203240F021E030E0FC013383C2
:1008B000228380E090E015C080918D01E82FF0E068
:1008C000E359FE4F998190838F5F80938D018093D0
:1008D0008E0105C061E0CE0101960E94D40381E043
:1008E00090E00F90DF91CF91089540E0682F8FE85E
:1008F00092E00C94A60281E00E9475048AE39FE1D5
:100900000197F1F70895CF93DF93E3EBF0E0849143
:10091000EFE9F0E0D491EBE8F0E0C491CC2391F062
:1009200081110E941202EC2FF0E0EE0FFF1FE4583D
:10093000FF4FA591B491EC91ED2381E090E021F47B
:1009400080E002C080E090E0DF91CF9108950097B1
:1009500069F0FC0101900020E9F73197AF01481BD5
:10096000590BBC018FE892E00C942A0180E090E0E2
:100970000895CF93DF93CDB7DEB728970FB6F894DD
:10098000DEBF0FBECDBF98E0E0E0F1E0DE011196E2
:1009900001900D929A95E1F79091A202891710F0BB
:1009A0008FEF890FFE013196E80FF11DE80FF11D61
:1009B0008081806828960FB6F894DEBF0FBECDBF49
:1009C000DF91CF910C9475041F920F920FB60F9286
:1009D00011242F933F934F935F936F937F938F9344
:1009E0009F93AF93BF93EF93FF938091B900887F5C
:1009F000803609F49CC068F5883209F45BC090F435
:100A0000803109F454C038F4882309F4EFC08830E9
:100A100009F44DC0EFC0883109F44CC0803209F4AC
:100A20005DC0E8C0803409F468C048F4803309F43C
:100A300055C0883309F0DEC08093B201D1C0803543
:100A400009F44FC0883509F45DC0883409F0D2C07C
:100A5000CFC0883909F4C0C0A8F4883709F467C04A
:100A600038F4883609F463C0803709F460C0C2C026
:100A7000883809F4B1C0803909F45FC0803809F0C2
:100A8000B9C05BC0803B09F481C038F4803A09F4F6
:100A900066C0883A09F47AC0ADC0803C09F4A0C0B1
:100AA000883C09F49DC0883B09F483C0A3C08091B1
:100AB000D80110C09091D7018091D601981770F598
:100AC000E091D70181E08E0F8093D701F0E0EA54E6
:100AD000FE4F80818093BB0085EC7FC08093B20184
:100AE00087C0E091D70181E08E0F8093D70180917C
:100AF000BB00F0E0EA54FE4F80839091D7018091D3
:100B0000D60167C0E091D70181E08E0F8093D701B5
:100B10008091BB00F0E0EA54FE4F80838091B501E4
:100B2000811166C081E08093B40184EA5AC083E0F9
:100B30008093B3011092E602CFCF8091E60280321B
:100B400008F04AC0E091E60281E08E0F8093E60251
:100B50008091BB00F0E0EA53FD4F8083BDCF8091D0
:100B6000E602803230F4E091E602F0E0EA53FD4F15
:100B700010820E94CA036091E60270E086EC92E067
:100B8000E0E0F0E009951092E6022AC084E080934C
:100B9000B3011092C5021092C402E0E0F0E00995A2
:100BA0008091C402811105C081E08093C40210923B
:100BB000A402E091C50281E08E0F8093C502F0E0AF
:100BC000EC55FD4F80818093BB009091C5028091D0
:100BD000C402981708F480CF85E88093BC000AC04F
:100BE00085EC8093BC001092B30104C01092B20156
:100BF0000E94CA03FF91EF91BF91AF919F918F9196
:100C00007F916F915F914F913F912F910F900FBE08
:100C10000F901F901895CF93DF93EC0160E08E81C9
:100C20000E943B0261E08E810E943B0260E08E8167
:100C30000E943B028AE891E00197F1F7DF91CF91A2
:100C40000895AF92BF92CF92DF92EF92FF920F93EF
:100C50001F93CF93DF935C017C0187E0E80EF11CCA
:100C6000C0E0D0E0062F10E0670161E0F70181915C
:100C70007F010E946A02B8010C2E02C0759567952B
:100C80000A94E2F76170F60180810E943B0221968E
:100C9000C430D10549F7C501DF91CF911F910F9164
:100CA000FF90EF90DF90CF90BF90AF900C940B0629
:100CB000CF93DF93823028F090919E0298609093BA
:100CC0009E028093A2021092A3028AE39DE0019704
:100CD000F1F760E0809193020E943B0260E0809116
:100CE00095020E943B02809194028F3F19F060E0D0
:100CF0000E943B0280919E0284FD20C063E08FE849
:100D000092E00E942106CAE4D6E4CE010197F1F7F1
:100D100063E08FE892E00E9421062197F1F763E0FB
:100D20008FE892E00E94210682E592E00197F1F7B8
:100D300062E08FE892E00E94210615C080620E9466
:100D400075048AE496E40197F1F780919E0280622F
:100D50000E94750482E592E00197F1F780919E026E
:100D600080620E94750480919E0280620E947504D8
:100D700084E080939F028CE00E9475040E947B04B3
:100D800082E08093A00286E0DF91CF910C947504FD
:100D9000789484B5826084BD84B5816084BD85B556
:100DA000826085BD85B5816085BD80916E00816062
:100DB00080936E0010928100809181008260809308
:100DC000810080918100816080938100809180000A
:100DD0008160809380008091B10084608093B10035
:100DE0008091B00081608093B00080917A0084602F
:100DF00080937A0080917A00826080937A0080915B
:100E00007A00816080937A0080917A008068809374
:100E10007A001092C10082E00E9458061092B1013F
:100E20001092B00110928D0110928E011092B301B8
:100E300081E08093B5011092B40161E082E10E94EB
:100E40003B0261E083E10E943B028091B9008E7F0A
:100E50008093B9008091B9008D7F8093B90088E4B8
:100E60008093B80085E48093BC00E0918102F0910A
:100E7000820281E090E09C0100908D0202C0220F6E
:100E8000331F0A94E2F72083E0917D02F0917E0205
:100E90001082E0917F02F09180022FEC208310926B
:100EA0008E02E0918302F091840240819C010090C7
:100EB000890202C0220F331F0A94E2F7242B2083F9
:100EC000E0918302F091840240819C0100908A02AB
:100ED00002C0220F331F0A94E2F7242B2083E091F3
:100EE0008302F091840240819C0100908B0202C039
:100EF000220F331F0A94E2F7242B2083E091830210
:100F0000F0918402208100908C0202C0880F991F0A
:100F10000A94E2F780958223808361E08AE00E9450
:100F20006A0261E089E00E946A0261E086E00E9454
:100F30006A0260E085E00E946A0261E083E00E944C
:100F40006A0211E088E6D82E92E0C92E0FEF25EE56
:100F5000F22E35ECE32E46E0B42E5AE0A52E109387
:100F60008F01D092690110928D0110928E0160E084
:100F700089ED91E00E94460490918E019132E0F556
:100F80008091B3018111FCCFC092B3011093B501E0
:100F90000093B2011092D7019093D601EDE6F1E0F3
:100FA000A6EBB1E0981721F021912D938F5FFACF36
:100FB0001092D8018091D801806D8093D8018091E2
:100FC000B401813049F41092B4018091D80180932A
:100FD000BB00E092BC0002C0F092BC008091B30163
:100FE0008230E1F38091B2018F3F31F08091B20104
:100FF000803211F08091B20110928D0110928E0119
:1010000010928F018091B3018111FCCF1093B30135
:101010001093B5010093B2011092D701B092D6019E
:101020001093D8018091D801806D8093D801809170
:10103000B401813049F41092B4018091D8018093B9
:10104000BB00E092BC0002C0F092BC008091B301F2
:101050008130E1F38091D701873018F49091D70166
:1010600001C097E0A6EBB1E0E0E9F1E080E089178C
:1010700021F02D9121938F5FFACF1092B1018093CF
:10108000B00189ED91E00E94FD0389ED91E00E949D
:10109000FD03982F92959F708F70C82F2AE0929F22
:1010A000C00D1124C0936C0189ED91E00E94FD03F5
:1010B000D82FD695D695D695D6709D2F990F990F86
:1010C000D90F8F70D80FD0936A0189ED91E00E94FB
:1010D000FD03982F92959F708F70982E2AE0929F13
:1010E000900C112490926B0189ED91E00E94FD0318
:1010F00089ED91E00E94FD0389ED91E00E94FD03DE
:101100008C2F6A2D0E942C0B9111FBC187E0981245
:10111000A4C0DC3009F0A1C0C53108F0F5C1CB3066
:1011200020F4CF51CA3008F098C0C5E0D0E00E944A
:101130008304019781F440E050E060E070E080E0DB
:1011400090E00E946A0360E070E083E00E940B037D
:101150000E947B0474C080E00E94B90480E391E0A7
:101160000E94A70481E00E94B90486E391E00E94F6
:10117000A70440E050E06FEF70E08FEF90E00E9436
:101180006A0367E971E083E00E940B030E94830415
:10119000019789F264EF71E080E090E00E947701AE
:1011A00060E47FE183E00E940B030E9483040197C7
:1011B00011F264EF71E080E090E00E9477016FE24D
:1011C00071E083E00E940B030E948304019709F4FD
:1011D000B2CF64EF71E080E090E00E94770162EBB3
:1011E0007AE283E00E940B030E948304019709F4D2
:1011F000A2CF64EF71E080E090E00E94770160E0B0
:1012000070E083E00E940B030E948304019709F4BD
:1012100092CF60ED77E080E090E00E9477010E943D
:101220007B040E948304019709F485CF68EE73E084
:1012300080E090E00E947701219709F078CF40E0AC
:1012400050E060E070E080E090E00E946A0368EBAC
:101250007BE080E090E00E94770180916B01873015
:1012600009F0A3C080916A018C3009F09EC0809182
:101270006C018B508E3108F098C0C5E0D0E00E9420
:101280008304019781F440E050E060E070E080E08A
:1012900090E00E946A0360E070E083E00E940B032C
:1012A0000E947B0474C080E00E94B9048DE391E049
:1012B0000E94A70481E00E94B90483E491E00E94A7
:1012C000A7044FEF50E060E070E08FEF90E00E94E5
:1012D0006A0360EC7BE283E00E940B030E948304BC
:1012E000019789F264EF71E080E090E00E9477015D
:1012F0006AE671E083E00E940B030E948304019779
:1013000011F264EF71E080E090E00E94770164E305
:1013100071E283E00E940B030E948304019709F4A9
:10132000B2CF64EF71E080E090E00E9477016CE260
:1013300071E083E00E940B030E948304019709F48B
:10134000A2CF64EF71E080E090E00E94770160E05E
:1013500070E083E00E940B030E948304019709F46C
:1013600092CF60ED77E080E090E00E9477010E94EC
:101370007B040E948304019709F485CF68EE73E033
:1013800080E090E00E947701219709F078CF40E05B
:1013900050E060E070E080E090E00E946A0368EB5B
:1013A0007BE080E090E00E94770180916B018730C4
:1013B00009F0A1C080916A018D3009F09CC0809134
:1013C0006C01811198C0C5E0D0E00E9483040197B0
:1013D00081F440E050E060E070E080E090E00E9446
:1013E0006A0360E070E083E00E940B030E947B04CC
:1013F00074C080E00E94B90482E591E00E94A704D5
:1014000081E00E94B90486E591E00E94A70440E0D3
:1014100050E060E070E08FEF90E00E946A0360E5CA
:1014200073E283E00E940B030E948304019789F218
:1014300064EF71E080E090E00E94770160E971E084
:1014400083E00E940B030E948304019711F264EF72
:1014500071E080E090E00E94770160E87CE083E04A
:101460000E940B030E948304019709F4B2CF64EF3A
:1014700071E080E090E00E9477016EEF70E083E021
:101480000E940B030E948304019709F4A2CF64EF2A
:1014900071E080E090E00E94770160E070E083E01E
:1014A0000E940B030E948304019709F492CF60ED20
:1014B00077E080E090E00E9477010E947B040E9428
:1014C0008304019709F485CF68EE73E080E090E033
:1014D0000E947701219709F078CF40E050E060E06A
:1014E00070E080E090E00E946A0368EB7BE080E0BF
:1014F00090E00E94770160E67AEE80E090E00E9442
:1015000077010E9425012BCDCF3108F00ACE0DCEF8
:101510001092DC011092DB0188EE93E0A0E0B0E0D5
:101520008093DD019093DE01A093DF01B093E00191
:101530002CE031E03093DA012093D901109270024F
:1015400010926F028093710290937202A0937302C3
:10155000B09374028CE191E090936E0280936D02DF
:1015600089E292E090937A028093790285EE91E08D
:1015700090937C0280937B0285EC90E090937E02B6
:1015800080937D0284EC90E09093800280937F02B0
:1015900080EC90E0909382028093810281EC90E055
:1015A000909384028093830282EC90E09093860271
:1015B0008093850286EC90E0909388028093870266
:1015C00084E08093890293E090938A0297E090935D
:1015D0008B0225E020938C0221E020938D02109253
:1015E0009202109291022CE231E03093900220930B
:1015F0008F022CE0209393022FEF209394022BE094
:101600002093950228E0209396029093970280936E
:10161000980282E08093990210929A0210929B02A3
:1016200010929C0210929D0261E08CE00E946A027E
:10163000809194028F3F19F061E00E946A0261E09C
:10164000809195020E946A0210929E0281E00C94A1
:101650005806F8940C943E0B991B79E004C0991F2E
:10166000961708F0961B881F7A95C9F780950895FC
:10167000EE0FFF1F0590F491E02D0994F894FFCF31
:10168000000040001400540000000000460419044B
:101690001104FD03EE03ED03000000008C002A019D
:1016A0001501D900F900CE000000000005032A0151
:1016B0005445535445003132204D4C53004F55543E
:1016C000524F00313220434F4D5052494D49444F03
:1016D00053004E414F003132205350524159530074
:00000001FF
